:020000040000FA
:100000000C9472000C949A000C949A000C949A0030
:100010000C949A000C949A000C949A000C949A00F8
:100020000C949A000C949A000C949A000C949A00E8
:100030000C949A000C949A000C949A000C949A00D8
:100040000C94DB0C0C949A000C94A90C0C94830C6B
:100050000C949A000C949A000C949A000C949A00B8
:100060000C94250D0C949A00000000002500280037
:100070002B000000000023002600290000000008DB
:10008000000201000003040700000000000000005F
:1000900000000000240027002A00010204081020AC
:1000A000408001020408102001020408102004040A
:1000B0000404040404040202020202020303030310
:1000C0000303253032753A253032753A25303275C2
:1000D00000253032752F253032752F2530347500CC
:1000E000440E551311241FBECFEFD8E0DEBFCDBFA5
:1000F00011E0A0E0B1E0E6EDF7E302C005900D925B
:10010000A23BB107D9F723E0A2EBB1E001C01D92F9
:10011000AD37B207E1F710E0C1E7D0E004C02197A6
:10012000FE010E94721AC037D107C9F70E94D50E8E
:100130000C94DE1B0C9400008CBD9DBD08950895A9
:100140000895AF92BF92CF92DF92EF92FF920F93FA
:100150001F93CF93DF936C017B018B01040F151F5D
:10016000EB015E01AE18BF08C017D10759F06991C5
:10017000D601ED91FC910190F081E02DC601099529
:10018000892B79F7C501DF91CF911F910F91FF90D6
:10019000EF90DF90CF90BF90AF900895FC01538D0A
:1001A000448D252F30E0842F90E0821B930B541751
:1001B00010F0CF96089501970895FC01918D828DDE
:1001C000981761F0A28DAE0FBF2FB11D5D968C9177
:1001D000928D9F5F9F73928F90E008958FEF9FEFB6
:1001E0000895FC01918D828D981731F0828DE80F72
:1001F000F11D858D90E008958FEF9FEF0895FC012C
:10020000918D228D892F90E0805C9F4F821B9109F8
:100210008F739927089584E892E00E94FF0021E0FF
:10022000892B09F420E0822F089580E090E0892B4B
:1002300029F00E940B0181110C9400000895FC012B
:10024000A48DA80FB92FB11DA35ABF4F2C91848D37
:1002500090E001968F739927848FA689B7892C9394
:10026000A089B1898C91837080648C93938D848DE7
:10027000981306C00288F389E02D80818F7D8083EA
:100280000895EF92FF920F931F93CF93DF93EC01AA
:1002900081E0888F9B8D8C8D98131AC0E889F9892D
:1002A000808185FF15C09FB7F894EE89FF89608330
:1002B000E889F98980818370806480839FBF81E0B1
:1002C00090E0DF91CF911F910F91FF90EF900895F3
:1002D000F62E0B8D10E00F5F1F4F0F731127E02ECE
:1002E0008C8D8E110CC00FB607FCFACFE889F98906
:1002F000808185FFF5CFCE010E941F01F1CFEB8DEC
:10030000EC0FFD2FF11DE35AFF4FF0829FB7F894D9
:100310000B8FEA89FB8980818062CFCFCF93DF93F7
:10032000EC01888D8823B9F0AA89BB89E889F9890D
:100330008C9185FD03C0808186FD0DC00FB607FC42
:10034000F7CF8C9185FFF2CF808185FFEDCFCE0175
:100350000E941F01E9CFDF91CF910895833081F092
:1003600028F4813099F08230A9F008958730A9F0FF
:100370008830C9F08430B1F4809180008F7D03C053
:10038000809180008F7780938000089584B58F7767
:1003900084BD089584B58F7DFBCF8091B0008F77A9
:1003A0008093B00008958091B0008F7DF9CFCF93F6
:1003B000DF93282F30E0F901E458FF4F8491F901D1
:1003C000E656FF4FD491F901E255FF4FC491CC237B
:1003D000A1F081110E94AE01EC2FF0E0EE0FFF1FA3
:1003E000EE58FF4FA591B491EC91ED2381E090E0A0
:1003F00009F480E0DF91CF91089580E090E0FACF9A
:100400001F93CF93DF93282F30E0F901E458FF4F7B
:100410008491F901E656FF4FD491F901E255FF4F5F
:10042000C491CC23A9F0162F81110E94AE01EC2FAC
:10043000F0E0EE0FFF1FE859FF4FA591B4918FB781
:10044000F894EC91111108C0D095DE23DC938FBF96
:10045000DF91CF911F910895DE2BF8CFCF93DF93DB
:1004600090E0FC01E656FF4F249182559F4FFC011E
:1004700084918823D1F090E0880F991FFC01E05708
:10048000FF4FA591B491FC01E859FF4FC591D4915C
:1004900061110EC09FB7F8948C91E22FE0958E23E6
:1004A0008C932881E223E8839FBFDF91CF91089549
:1004B0008FB7F894EC91E22BEC938FBFF6CF3FB758
:1004C000F89480911B0290911C02A0911D02B091A2
:1004D0001E0226B5A89B05C02F3F19F00196A11D4D
:1004E000B11D3FBFBA2FA92F982F8827BC01CD017E
:1004F000620F711D811D911D42E0660F771F881FDD
:10050000991F4A95D1F708952FB7F8946091170273
:10051000709118028091190290911A022FBF0895CC
:100520000895CF92DF92EF92FF920F931F93CF9394
:10053000DF93FC0124892F3F81F46EBD00000DB4D0
:1005400007FEFDCF1EB5812FDF91CF911F910F9137
:10055000FF90EF90DF90CF900895062FEC0110E010
:1005600087E0E82EF12CCC24C394D12C110F60E04D
:100570008C890E940002B6010E2C01C0660F0A94FD
:10058000EAF760238A890E94000261E08C890E9458
:1005900000028B890E94D701892B09F01160F1E0DC
:1005A000EF1AF10818F7CFCF08950895FC019F01C5
:1005B0002F5F3F4F80818F7E803269F080E02AE09C
:1005C000919130ED390F3A3040F4829F900D112413
:1005D00080ED890FF5CFF901EACF089508952091B4
:1005E000F301260F3327331F21323105ECF420911C
:1005F0007E02FC0190E080E0243069F082E0089502
:10060000A091F3012191AC014D525E4FA40FB52F83
:10061000B11D2C930196861798F38091F301680F12
:100620006093F30180E0089581E0089510927E02C6
:1006300081E080935D021092580261E082E10E94A5
:10064000000261E083E10E940002E9EBF0E08081BA
:100650008E7F808380818D7F808388E48093B80043
:1006600085E48093BC000895CF93DF9391E090934D
:10067000D2018823B9F0C091B800D091BA0080911E
:10068000BC008A7B8093BC0060E082E10E94000293
:1006900060E083E10E9400020E941603D093BA003A
:1006A000C093B800DF91CF910895CF92DF92EF927F
:1006B000FF920F931F93CF93DF93D82FC62F6132F2
:1006C00008F098C00E945F026B017C0180917E025D
:1006D00081116BC081E080937E0280935D029FEF69
:1006E00090935C0210925B029C0F90935A0280934D
:1006F000590280915902DD0FD82BD0935902809175
:100700005802813009F078C0109258020E945F02AE
:100710006B017C01809159028093BB008091800223
:1007200090918102A0918202B0918302892B8A2B41
:100730008B2BA1F00E945F02009180021091810238
:1007400020918202309183026C197D098E099F09E4
:10075000061717072807390708F448C08091BC001E
:1007600083FDD8CF85EC8093BC000E945F026B01B3
:100770007C0180917E02813009F440C080915B024F
:100780008C1710F4C0915B02E8E3F2E0AEE5B2E052
:1007900080E08C1355C08C2FDF91CF911F910F916A
:1007A000FF90EF90DF90CF9008958091800290911C
:1007B0008102A0918202B0918302892B8A2B8B2B1C
:1007C00009F484CF0E945F0200918002109181029F
:1007D00020918202309183026C197D098E099F0954
:1007E000061717072807390708F070CF80917F0296
:1007F0000E943403C0E0CFCF85EEB5CF8091800258
:1008000090918102A0918202B0918302892B8A2B60
:100810008B2B09F4AECF0E945F02009180021091F1
:10082000810220918202309183026C197D098E0928
:100830009F09061717072807390708F09ACFD6CF60
:1008400091919D938F5FA5CF0895E09133028091A0
:100850003202E81730F4F0E0E25AFD4F808190E078
:1008600008958FEF9FEF08959091330280913202A7
:100870002FEF3FEF981748F4E92FF0E0E25AFD4FD1
:10088000208130E09F5F90933302C90108958091E9
:10089000320290913302891B990B0895CF92DF9217
:1008A000EF92FF920F931F93CF93DF937C01CB01C5
:1008B0008A0120913702222389F0EB016B01C40EDB
:1008C000D51ECC15DD0569F06991D701ED91FC913C
:1008D0000190F081E02DC7010995F3CF642F0E94AC
:1008E000EF02C801DF91CF911F910F91FF90EF9020
:1008F000DF90CF900895CF93DF931F92CDB7DEB7EF
:100900006983209137022223F9F0209134022032AA
:1009100058F021E030E0FC013383228390E080E056
:100920000F90DF91CF91089580913502E82FF0E08C
:10093000EE54FE4F998190838F5F809335028093B0
:10094000340281E090E0ECCF61E0CE0101960E949C
:10095000EF02F7CFCF92DF92EF92FF920F931F93A8
:10096000CF93DF93D091340281E0D13208F09CC064
:10097000C09136020E945F026B017C0180917E0271
:1009800081116CC082E080937E0281E080935D02E1
:100990008FEF80935C0210925B02D0935A02A2EB1D
:1009A000B1E0E8E3F2E080E0D8138DC01092590284
:1009B00080915902CC0FC82BC093590280915802E4
:1009C000813009F084C0109258020E945F026B01CE
:1009D0007C01809159028093BB00809180029091AC
:1009E0008102A0918202B0918302892B8A2B8B2BEA
:1009F000A1F00E945F02009180021091810220917B
:100A00008202309183026C197D098E099F090617B5
:100A100017072807390708F442C08091BC0083FDFE
:100A2000D8CF85EC8093BC000E945F026B017C01F3
:100A300080917E02823009F44CC080915C028F3F2D
:100A400009F469C080915C02803209F466C080912B
:100A50005C02803309F463C084E026C08091800288
:100A600090918102A0918202B0918302892B8A2BFE
:100A70008B2B09F483CF0E945F02009180021091BA
:100A8000810220918202309183026C197D098E09C6
:100A90009F09061717072807390708F06FCF8091BD
:100AA0007F020E94340385E01092350210923402D6
:100AB00010923702DF91CF911F910F91FF90EF902D
:100AC000DF90CF9008959D9191938F5F6DCF85EECC
:100AD000A9CF8091800290918102A0918202B09171
:100AE0008302892B8A2B8B2B09F4A2CF0E945F02F1
:100AF0000091800210918102209182023091830244
:100B00006C197D098E099F090617170728073907F1
:100B100008F08ECFC4CF80E0C7CF82E0C5CF83E09E
:100B2000C3CFCF93DF93C82FD62F80915B038F3F26
:100B300059F580914A0390914B032091520331E083
:100B4000309337022093360210923502109234020D
:100B5000DC01ED91FC910190F081E02D6C2F099565
:100B600080914A0390914B03DC01ED91FC9101903F
:100B7000F081E02D6D2F099580914A0390914B03F0
:100B8000DF91CF910C94AA0480915E038F3F21F4F2
:100B900082E591E00E949C0060E080915B030E94EE
:100BA00000026C2F6F778AE493E00E9491026D2F10
:100BB0008AE493E00E94910261E080915B03DF91FF
:100BC000CF910C94000290E080E008958F929F9264
:100BD000AF92BF92CF92DF92EF92FF92CF93DF93CB
:100BE000EC01F62E89898F3F09F065C088819981D3
:100BF000288531E030933702209336021092350277
:100C000010923402DC01ED91FC910190F081E02D15
:100C10000995888199810E94AA0463E088850E94D1
:100C20005503109233028093320288819981DC014E
:100C3000ED91FC910284F385E02D09954C01990F0B
:100C4000AA08BB08BA2CA92C982C882488819981E1
:100C5000DC01ED91FC910284F385E02D0995092ECC
:100C6000000CAA0BBB0B882A992AAA2ABB2ABA2CE9
:100C7000A92C982C882488819981DC01ED91FC9124
:100C80000284F385E02D0995092E000CAA0BBB0BFD
:100C90006C017D01C828D928EA28FB28C701B601C4
:100CA000DF91CF91FF90EF90DF90CF90BF90AF900A
:100CB0009F908F9008958C898F3F21F482E591E079
:100CC0000E949C0060E089890E9400026F2DCE0185
:100CD0000E94910260E0CE010E94910290E0B0E09B
:100CE000A0E0CC24D82EE92EFA2E60E0CE010E949E
:100CF0009102C82AFE2CED2CDC2CCC2460E0CE0125
:100D00000E949102C82A61E089890E940002C6CF30
:100D10008F929F92AF92BF92CF92DF92EF92FF920B
:100D20000F931F93CF93DF93EC016AEF0E94E605C8
:100D30000D891E8930E020E0C72ED82EE92EFF2431
:100D4000E7FCFA94C01AD10AE20AF30A57E0959533
:100D50008795779567955A95D1F7000F111F221F38
:100D6000331F4B015C01801A910AA20AB30AA50144
:100D70009401AF89B88D0E940A194B015C01FBE018
:100D8000B594A79497948794FA95D1F7A701960103
:100D9000C701B6010E94B9189B01AC01ACE05595A2
:100DA000479537952795AA95D1F7A98DBA8D0E94B9
:100DB0000A199B01AC01BEE05595479537952795DB
:100DC000BA95D1F7280D391D4A1D5B1D2D873E8729
:100DD0004F87588BA5E0B0E00E94FF1860587F4F06
:100DE0008F4F9F4F672F782F892F992787FD9A95CF
:100DF0000E94721720E030E048EC52E40E94C216D4
:100E0000DF91CF911F910F91FF90EF90DF90CF90E6
:100E1000BF90AF909F908F9008952F923F924F92E6
:100E20005F926F927F928F929F92AF92BF92CF927A
:100E3000DF92EF92FF920F931F93CF93DF93CDB783
:100E4000DEB76D970FB6F894DEBF0FBECDBF9D8F96
:100E50008C8F0E94880667EF8C8D9D8D0E94E60521
:100E6000688F798F8A8F9B8FEC8DFD8D8585968518
:100E7000A785B0896C017D01FF0CCC08DC2C7601C4
:100E80009C01AD016C2D7C2D8C2D9C2D345F41403F
:100E90005109610971098109910929873A874B87AD
:100EA0005C873B014C0159016A017B018C010E9466
:100EB0001219322E232E4A8B5B8B6C8B7D8B8E8B83
:100EC0009F8BAC8DBD8D5E963C915E975D962C910F
:100ED000932F990F990B492F592F692F792F892F0C
:100EE0000E9412190CE00E940A1A522E39834D8773
:100EF0005E876F87788B898B492EEC8DFD8D30A1B5
:100F0000278D932F990F990BA32CB22CCA88DB88BD
:100F1000EC88FD880E891F89492F592F692F792F59
:100F2000892F0E94121908E00E94231AA52CB9806B
:100F3000CD84DE84EF84F8880989142D0E94401A3C
:100F400070588F4F9F4FAC8DBD8D5B96ED91FC918E
:100F50005F01D12CC12CE12CF12C8701E983BA82ED
:100F6000CB82DC82ED82FE820F831887C12CD12CCC
:100F7000E12CF12C00E010E00E94121901E20E9425
:100F8000231A2983532E4D875E876F87788B898B31
:100F9000492EA0E00E94521A09F43DC1AC8DBD8DCE
:100FA00096963C91969795962C91932F990F990B25
:100FB000A32CB22CCA88DB88EC88FD880E891F8997
:100FC000492F592F692F792F892F0E941219190142
:100FD0004A8B5B8B6C8B7D8B8E8B9F8BEC8DFD8D11
:100FE00034A123A1932F990F990BA984BA84CB84A0
:100FF000DC8473018401492F592F692F792F892FA0
:101000000E94121901E10E940A1A5101CA88DB8864
:10101000EC88FD880E891F890E94401A59016A01D7
:101020007B01282E192F488D598D6A8D7B8D84E088
:1010300075956795579547958A95D1F780E090E02B
:10104000A0E1B0E0841B950BA60BB70B3C014D0152
:10105000990C6608762C43019C01AD01662D762D16
:10106000862D962D0FE10E940A1A722E832E942E41
:10107000652EB62FA72F382E9987EC8DFD8D32A1C6
:1010800021A1932F990F990B492F592F692F792F50
:10109000892F03E20E940A1A022D0E94401A590168
:1010A0006A017B018C01272D382D492D562D6B2F80
:1010B0007A2F832D99850E94491AE5E3AE2EFCE034
:1010C000BF2EC12CD12CE12CF12C00E010E00E94AD
:1010D0001219A980B52CCD84DE84EF84F8880989A3
:1010E000142D0E946C1929873A874B875C87698386
:1010F0007D878E879F870DE00E94231A922E832E74
:10110000742E652E562E472E382E292EAC8DBD8D71
:101110009C963C919C979B962C91932F990F990BA1
:10112000A92CB82CC72CD62CE52CF42C032D122D71
:10113000492F592F692F792F892F0E9412190E9448
:10114000121909E10E94231AA984BA84CB84DC8491
:10115000E980FD840E851F850E94401A19012A012D
:101160003B014C01EC8DFD8D32A521A5932F990FEC
:10117000990B492F592F692F792F892F0E94121906
:1011800003E10E94231A59016A017B018C0191013C
:10119000A201B301C4010E94401A08E00E94231A70
:1011A00059016A017B01E82F192FAC8DBD8D9896EE
:1011B0003C91989797962C91932F990F990B492FC3
:1011C000592F692F792F892F04E00E940A1A0E2FB8
:1011D0000E94401A0E946A1720E030E040E85BE37A
:1011E0000E944C186D960FB6F894DEBF0FBECDBFAF
:1011F000DF91CF911F910F91FF90EF90DF90CF90F3
:10120000BF90AF909F908F907F906F905F904F9026
:101210003F902F90089560E070E0CB01E3CFCF9333
:10122000DF93C82F80915B038F3F09F047C0809107
:101230004A0390914B032091520331E030933702DF
:10124000209336021092350210923402DC01ED91A7
:10125000FC910190F081E02D6C2F099580914A035B
:1012600090914B030E94AA0462E0809152030E9475
:101270005503109233028093320280914A03909179
:101280004B03DC01ED91FC910284F385E02D09957F
:10129000C82F80914A0390914B03DC01ED91FC91A2
:1012A0000284F385E02D099520E03C2FE901C82B4D
:1012B000D92B9C2F8D2FDF91CF91089580915E03C4
:1012C0008F3F21F482E591E00E949C0060E08091D4
:1012D0005B030E9400026C2F8AE493E00E9491025B
:1012E00060E08AE493E00E949102C82F60E08AE403
:1012F00093E00E949102DC2FC82F61E080915B0394
:101300000E940002D6CFCF93DF93EC0160E08E8184
:101310000E94000261E08E810E94000260E08E81E6
:101320000E9400028BE891E00197F1F7DF91CF91E5
:101330000895CF92DF92EF92FF920F931F93CF9376
:10134000DF936C017C0187E0E80EF11CD0E0C0E087
:10135000062F10E0B8010C2E02C0759567950A940F
:10136000E2F76170F70181917F010E9400022196EE
:10137000C430D10579F7C601DF91CF911F910F914C
:10138000FF90EF90DF90CF900C948309CF92DF9283
:10139000EF92FF920F931F93CF93DF93EC01F62E02
:1013A000642F8C810E9400028D818F3F19F060E0D4
:1013B0000E9400020F2D10E08F8584FF25C06E0172
:1013C00087E0C80ED11CF12CE12CB8010E2C02C014
:1013D000759567950A94E2F76170F60181916F0146
:1013E0000E940002FFEFEF1AFF0A88E0E816F104FE
:1013F00061F7CE01DF91CF911F910F91FF90EF9098
:10140000DF90CF900C948309B80184E075956795BF
:101410008A95E1F7CE010E9499096F2DCE01DF91E7
:10142000CF911F910F91FF90EF90DF90CF900C9490
:10143000990940E0682F86E293E00C94C60981E0A8
:101440000E94190A8BE39FE10197F1F708959091AB
:101450003903691710F06FEF690FE62FF0E0EA5DCE
:10146000FC4F9489890F80680C94190ACF93DF93FD
:10147000823029F4909135039860909335038093DE
:10148000390310923A0380E480933B0380E1809318
:101490003C0380E580933D0361E080912A030E9434
:1014A0002E0280912B038F3F19F061E00E942E02E3
:1014B00061E080912C030E942E02C6E2D3E09E01DF
:1014C000265233408091350384FD0BC084E090E0C8
:1014D00021962817390744F461E08E810E942E027C
:1014E000EECF88E090E0F4CF8BE39DE00197F1F739
:1014F00060E080912A030E94000260E080912C034A
:101500000E94000280912B038F3F19F060E00E943F
:1015100000028091350384FD34C063E086E293E0ED
:101520000E949909CBE4D6E4CE010197F1F763E07C
:1015300086E293E00E9499092197F1F763E086E241
:1015400093E00E94990983E592E00197F1F762E048
:1015500086E293E00E9499098091350380620E949F
:10156000190A84E0809336038CE00E94190A0E94D5
:101570001F0A82E08093370386E0DF91CF910C94BD
:10158000190A80620E94190A8BE496E40197F1F728
:101590008091350380620E94190A83E592E00197E9
:1015A000F1F78091350380620E94190AD5CF41E09E
:1015B0000E94C60981E090E00895EF92FF921F9388
:1015C000CF93DF937C01D0E0C0E010E0F701808191
:1015D0000E94D7010C2E01C0880F0A94EAF7182B3D
:1015E00061E0F70181810E94000260E0F7018181E2
:1015F0000E9400022196C830D10541F7812FDF916A
:10160000CF911F91FF90EF900895FB010190002072
:10161000E9F73197AF01461B570BDC01ED91FC91C7
:101620000280F381E02D0994CF93DF93BC0184E81D
:1016300092E00E94050BEC0164E571E084E892E021
:101640000E94050B8C0F9D1FDF91CF9108950C9484
:10165000231B0C94231B0F931F93CF93DF938C01B9
:10166000EB01FB01349680E2DF011D928A95E9F7D8
:1016700084E290E0A0E0B0E088839983AA83BB83F2
:10168000F80183819481092E000CAA0BBB0B8C837B
:101690009D83AE83BF8386E090E0A0E0B0E08887C2
:1016A0009987AA87BB870E948402688B798B8A8B73
:1016B0009B8BD80115968D919C910E940D0720E07F
:1016C00030E048EC52E40E94C2166C8B7D8B8E8B0E
:1016D0009F8B81E0DF91CF911F910F9108950F9320
:1016E0001F93CF93DF938C01EB01FB01349680E2D3
:1016F000DF011D928A95E9F784E290E0A0E0B0E076
:1017000088839983AA83BB83F80183819481092EFE
:10171000000CAA0BBB0B8C839D83AE83BF838DE033
:1017200090E0A0E0B0E088879987AA87BB870E94F5
:101730008402688B798B8A8B9B8BD80115968D914F
:101740009C910E9488066C8B7D8B8E8B9F8B81E099
:10175000DF91CF911F910F9108950F931F93CF9316
:10176000DF938C01EB0188E2FB0111928A95E9F786
:101770004BE050E067E571E0CE010E94AC1B1B8698
:1017800081E090E0A0E0B0E08C879D87AE87BF87C6
:10179000F80183819481092E000CAA0BBB0B888B66
:1017A000998BAA8BBB8B86E090E0A0E0B0E08C8B9D
:1017B0009D8BAE8BBF8B1CA21DA21EA21FA280E020
:1017C00090E0A6E9B3E4888F998FAA8FBB8F80E061
:1017D00090E8A9E8B4E48C8F9D8FAE8FBF8F86EA26
:1017E0009BE9A4E4BCE388A399A3AAA3BBA3DF91CC
:1017F000CF911F910F9108950F931F93CF93DF9374
:101800008C01EB0188E2FB0111928A95E9F74BE02C
:1018100050E067E571E0CE010E94AC1B1B8681E0C1
:1018200090E0A0E0B0E08C879D87AE87BF87F8018D
:1018300083819481092E000CAA0BBB0B888B998B9A
:10184000AA8BBB8B8DE090E0A0E0B0E08C8B9D8BF1
:10185000AE8BBF8B1CA21DA21EA21FA280E090E037
:10186000A0E2B2EC888F998FAA8FBB8F80E090E0C6
:10187000AAEAB2E48C8F9D8FAE8FBF8F8AE097ED7E
:10188000A3E2BCE388A399A3AAA3BBA3DF91CF9152
:101890001F910F91089585ED8093BC008091800287
:1018A00090918102A0918202B09183020796A11DBE
:1018B000B11D23E0B695A795979587952A95D1F701
:1018C0002091BC0024FD03C010927E020895409137
:1018D0008002509181026091820270918302452BB7
:1018E000462B472B69F30097A105B10541F025E38D
:1018F0002A95F1F700000197A109B109E1CF809184
:101900007F020C9434031F920F920FB60F92112492
:101910002F933F934F935F936F937F938F939F93F7
:10192000AF93BF93EF93FF9384E892E00E941F016F
:10193000FF91EF91BF91AF919F918F917F916F91A7
:101940005F914F913F912F910F900FBE0F901F907D
:1019500018951F920F920FB60F9211242F938F9309
:101960009F93EF93FF93E0919402F0919502808111
:10197000E0919A02F0919B0282FD1BC090818091C0
:101980009D028F5F8F7320919E02821741F0E0913C
:101990009D02F0E0EC57FD4F958F80939D02FF91E3
:1019A000EF919F918F912F910F900FBE0F901F90ED
:1019B00018958081F4CF1F920F920FB60F921124C9
:1019C0002F933F938F939F93AF93BF938091170271
:1019D00090911802A0911902B0911A02309116024A
:1019E00023E0230F2D3758F50196A11DB11D20933B
:1019F00016028093170290931802A0931902B093D5
:101A00001A0280911B0290911C02A0911D02B091BC
:101A10001E020196A11DB11D80931B0290931C0212
:101A2000A0931D02B0931E02BF91AF919F918F9121
:101A30003F912F910F900FBE0F901F90189526E8A1
:101A4000230F0296A11DB11DD2CF1F920F920FB688
:101A50000F9211242F933F934F935F936F937F9334
:101A60008F939F93AF93BF93EF93FF938091B900B0
:101A7000887F803609F44AC0F0F5883209F4A7C09F
:101A800018F5803109F49BC0B8F4882309F4F9C033
:101A9000883009F494C0FF91EF91BF91AF919F916D
:101AA0008F917F916F915F914F913F912F910F9007
:101AB0000FBE0F901F901895883109F488C08032AE
:101AC00051F780935C0214C0803409F49DC040F447
:101AD0008033B9F38833F9F680935C0285ECB0C0AB
:101AE000803509F485C0883509F496C0883499F6A4
:101AF0000E944B0CD0CF883909F48CC038F5883758
:101B000029F050F4883611F0803729F683E080936D
:101B10007E021092150257C0883809F47BC08039C4
:101B200019F0803809F0B7CF80911502803208F0A3
:101B300071C0E091150281E08E0F809315028091B3
:101B4000BB00F0E0EB50FE4F80833DC0803B39F09E
:101B5000E0F4803A09F479C0883A09F09CCF84E037
:101B600080937E021092F4011092F301E091220220
:101B7000F091230209958091F30181110FC081E05A
:101B80008093F3011092D30109C0803C09F4A6CFE1
:101B9000883C09F4A3CF883B09F07DCFE091F401A4
:101BA00081E08E0F8093F401F0E0ED52FE4F8081D2
:101BB0008093BB009091F4018091F30129C0809142
:101BC00059028093BB0085EC8093BC0064CF909158
:101BD0005B0280915A02981758F5E0915B0281E010
:101BE0008E0F80935B02F0E0E85CFD4F8081E9CFCF
:101BF000E0915B0281E08E0F80935B028091BB00DD
:101C0000F0E0E85CFD4F808390915B0280915A0286
:101C10009817C8F285E8D8CFE0915B0281E08E0F7B
:101C200080935B028091BB00F0E0E85CFD4F808315
:101C300080915D0281115CCF81E08093580284EA3B
:101C40008093BC0010927E0226CF85EC8093BC006E
:101C500010927E0280911502803230F4E0911502DC
:101C6000F0E0EB50FE4F10826091150270E0E091C1
:101C70002002F091210285EF91E009951092150262
:101C80000ACF10925C0234CF1F93CF93DF93E4E826
:101C9000F2E01382128288EE93E0A0E0B0E0848349
:101CA0009583A683B7832CE031E03183208325EC34
:101CB00030E03587248724EC30E03787268720EC16
:101CC00030E0318B208B21EC30E0338B228B22EC07
:101CD00030E0358B248B26EC30E0378B268B118E51
:101CE000128E138E148EEEE3F3E01382128284833D
:101CF0009583A683B7838EE191E091838083CAE4C4
:101D0000D3E01FEF198B1A8B1B8B1C8BF983E88395
:101D100087E090E00E94871AFC018AE491E09183B9
:101D2000808388E191E094838383D683C583FD8398
:101D3000EC8387E090E00E94871AFC018CE391E03D
:101D40009183808314821382D683C583FF83EE83BD
:101D5000E6E2F3E01382128280E391E091838083D4
:101D600082E08483158383E0868384E0878385E033
:101D7000808786E0818787E08287138614861586B0
:101D80001686178681E00E94360AE3E2F3E08FE0D0
:101D900080838EE0818380E18283F0932203E0934D
:101DA0002103DF91CF911F910895CF93DF93CDB79A
:101DB000DEB764970FB6F894DEBF0FBECDBF789440
:101DC00084B5826084BD84B5816084BD85B5826040
:101DD00085BD85B5816085BD80916E0081608093F1
:101DE0006E0010928100809181008260809381005A
:101DF000809181008160809381008091800081606A
:101E0000809380008091B10084608093B1008091C4
:101E1000B00081608093B00080917A0084608093EC
:101E20007A0080917A00826080937A0080917A00B3
:101E3000816080937A0080917A00806880937A0034
:101E40001092C10060E088E00E942E0287E691E0D7
:101E50000E94D60282E691E00E94D6028AE691E0D4
:101E60000E94D6028DE691E00E94D60280E791E0C2
:101E70000E94D602E0919402F091950282E0808364
:101E8000E0919002F09191021082E0919202F09123
:101E900093028FEC808310929C02E0919802F09163
:101EA000990286E08083E0919602F091970280810A
:101EB00080618083E0919602F09197028081886032
:101EC0008083E0919602F091970280818068808300
:101ED000E0919602F091970280818F7D808300913E
:101EE00021031091220360E0D80111968C910E9489
:101EF0002E0260E0F80180810E942E0260E0D8018D
:101F000012968C910E942E0282E00E94360A86E789
:101F10008093520380915B038F3F09F065C110925B
:101F200033021092320210923502109234020E9453
:101F300016038FE990E0909323028093220280EAB7
:101F400090E0909321028093200280915B038F3F69
:101F500009F099C180914A0390914B03209152035B
:101F600031E03093370220933602109235021092FE
:101F70003402DC01ED91FC910190F081E02D60EDE7
:101F8000099580914A0390914B030E94AA0461E055
:101F9000809152030E9455031092330280933202C3
:101FA00080914A0390914B03DC01ED91FC910284F6
:101FB000F385E02D0995182F183509F082C188E8BE
:101FC0000E940F099093600380935F038AE80E9448
:101FD0000F0990936203809361038CE80E940F09BC
:101FE00090936403809363038EE80E940F0990939B
:101FF00066038093650380E90E940F09909368034C
:102000008093670382E90E940F0990936A0380938B
:10201000690384E90E940F0990936C0380936B031A
:1020200086E90E940F0990936E0380936D0388E9FF
:102030000E940F099093700380936F038AE90E94B6
:102040000F0990937203809371038CE90E940F092A
:1020500090937403809373038EE90E940F09909309
:102060007603809375038DEE8093780360917703F8
:10207000607C6093770367FB662760F985EF0E94B9
:10208000910580917803682F6770B0E26B9FB00173
:102090001124282F2695269526952770E4E02E9F5B
:1020A00090011124622B8295869586958370682B0A
:1020B00084EF0E9491050E945F022B013C0104E61F
:1020C000802E912CA12CB12C0E945F0264197509FD
:1020D00086099709683E734081059105A8F3F1E0F0
:1020E0008F1A9108A108B10828EE420E23E0521E73
:1020F000611C711C81149104A104B10429F76CE8DE
:1021000071E084E892E00E94050B8EE591E00E9468
:10211000140B62E971E084E892E00E94050B8AE604
:1021200091E00E94140B14E6C12ED12CFE013196D1
:102130007F01BBE02B2E312C88E00E94D7018C015F
:1021400081E00115110509F480E0809331020E94BD
:10215000840280902D0290902E02A0902F02B090C9
:102160003002681979098A099B096D32714081052D
:10217000910510F1012B09F4BAC0809100019091F2
:1021800001018130910509F0A1C080912C028111DB
:1021900013C082E090E0909301018093000191E0F0
:1021A00090932C020E94840260932D0270932E0261
:1021B00080932F0290933002809100019091010151
:1021C0008130910509F49BC0029709F429C1A0E070
:1021D000B0E0AB2B09F4B0CF0E940B01882309F4C7
:1021E000A8CF0E940000A5CF61E00E94000261E03C
:1021F00080915B030E942E0280915E038F3F09F065
:1022000034C01FB7F89480911F02811127C0E8EBFA
:10221000F0E08491E4EAF0E09491E82FF0E0EE0F32
:10222000FF1FE057FF4FA591B491EC91E92321F4F2
:1022300061E08AE00E94000261E08AE00E942E02D2
:102240008CB580618CBD8CB580648CBD61E08DE007
:102250000E942E0261E08BE00E942E0280911F02FC
:102260008F5F80931F021FBF70CE61E00E942E021D
:1022700061E080915C030E942E0260E080915D032A
:102280000E942E0262CE80915E038F3F21F482E590
:1022900091E00E949C0060E080915B030E9400023C
:1022A00060ED8AE493E00E94910260E08AE493E0AA
:1022B0000E949102182F61E080915B030E9400024E
:1022C0007BCE83E791E00E94140B19CF029709F0AF
:1022D00073CF80912C0281116FCFA1E0B0E0B09359
:1022E0000101A0930001B1E0B0932C025BCF80917B
:1022F0002C02882309F460CF10922C025DCF0E943B
:10230000840200912402109125022091260230912E
:102310002702601B710B820B930B693E7340810592
:10232000910508F454CF0E941F0A8AE493E00E94AA
:10233000880620E030E040E85FE30E9455162B015C
:102340003C018AE493E00E940D0720E030E447EE70
:1023500054E40E9456164B015C011F928FED8F933F
:1023600020E030E048EC52E4C301B2010E944C1876
:102370000E943417CB01B6010E94C9189F938F9316
:10238000C301B2010E9434177F936F9388E991E0F3
:102390009F938F93FF92EF920E94BB1B60E084E0BB
:1023A0000E94270AB70186E293E00E94050BC5014F
:1023B000B4010E943B1724E630E040E050E00E9468
:1023C000DD187F936F9320E030E048EC52E4C501C4
:1023D000B4010E94C2160E9434177F936F93E5EAFE
:1023E000F1E0FF93EF93FF92EF920E94BB1B61E03D
:1023F00083E00E94270AB70186E293E00E94050B62
:102400000E94840260932402709325028093260226
:10241000909327020FB6F894DEBF0FBECDBFD7CE84
:10242000009121031091220360E0D80112968C9153
:102430000E94000261E0F80182810E942E0260E0A9
:10244000D80111968C910E94000261E0F80181810F
:102450000E942E0261E0D8018C910E942E0261E060
:10246000F80182810E940002C1010197F1F7AFEBF0
:10247000AA2EB12C6A2D6170D8018C910E940002A5
:1024800061E0F80181810E940002F7E0BF1205C0FF
:1024900060E0D8018C910E942E0260E0F8018181F9
:1024A0000E940002A694B394F8E0BF12E3CF80919B
:1024B0002103909122030E94DD0A082F80912103BD
:1024C000909122030E94DD0AB82E80912103909101
:1024D00022030E94DD0A86FFD9C0982F9F71292F01
:1024E00030E0F4E035952795FA95E1F7322F330F78
:1024F000330F122F131B110F190F85FD145F8091DD
:102500002103909122030E94DD0AA82E80912103CD
:10251000909122030E94DD0A982E809121039091D0
:1025200022030E94DD0A80912103909122030E94E0
:10253000DD0A882E80912103909122030E94DD0AFA
:10254000E0912103F091220360E082810E94000269
:10255000C1010197F1F70E94840220912802309175
:10256000290240912A0250912B02621B730B840BAB
:10257000950B693E73408105910508F428CE0F77CD
:102580000E941F0A60E083E00E94270A882D90E0E5
:1025900024E0959587952A95E1F7982F990F990F43
:1025A000891B880F880E882D90E08053984F9F9349
:1025B0008F93892D90E034E0959587953A95E1F7D2
:1025C000982F990F990F891B880F980E1F929F9231
:1025D0008A2D90E044E0959587954A95E1F7982FEC
:1025E000990F990F891B880FA80E1F92AF9281ED4A
:1025F00090E09F938F931F9254E1A52EAF92FF928C
:10260000EF920E947013B70186E293E00E94050BDF
:1026100061E084E00E94270A802F90E064E09595B5
:1026200087956A95E1F7982F990F990F891B880F65
:10263000080F1F920F938B2D90E074E0959587956E
:102640007A95E1F7982F990F990F891B880FB80E8B
:102650001F92BF921F921F93E2ECF0E0FF93EF9363
:102660001F92AF92FF92EF920E947013B70186E221
:1026700093E00E94050B0E948402609328027093ED
:10268000290280932A0290932B02C4CE282F30E097
:10269000E4E035952795EA95E1F7922F990F990F88
:1026A000122F191B110F180F2ACF80914E039091F2
:1026B0004F03009739F0DC01ED91FC910280F3812A
:1026C000E02D09958091500390915103009739F0C6
:1026D000DC01ED91FC910280F381E02D09940895D5
:1026E000AEE0B0E0E6E7F3E10C942C160D891E890C
:1026F0008F89988D2EE02C831A83098397FF02C05F
:1027000080E090E801979E838D83AE01455E5F4F28
:10271000698D7A8DCE0101960E94A0134D815E8154
:1027200057FD0AC02F813885421753070CF49A01D0
:10273000020F131FF80110822E96E4E00C94481645
:10274000ABE0B0E0E6EAF3E10C941E167C013B013D
:102750008A01FC0117821682838181FFC8C1CE01E4
:1027600001965C01F7019381F30193FD859193FF3D
:1027700081913F01882309F453C1853239F493FDD7
:10278000859193FF81913F01853229F4B70190E053
:102790000E949015E7CF912C212C312CFFE1F315ED
:1027A00038F08B3211F190F4803209F1833229F143
:1027B00037FC3CC020ED280F2A3050F536FE20C0F3
:1027C0008AE0989E200D1124922E06C08D3291F041
:1027D000803371F7689430F8F30193FD859193FF8E
:1027E00081913F018111DACF21C0689431F868945A
:1027F00032F8F2CF689433F8EFCF689434F8ECCF26
:10280000EAE02E9E200D1124222E689435F8E4CFA4
:102810008E3229F436FC04C1689436F8DDCF8C364C
:1028200019F4689437F8D8CF8836B1F2982F9F7D85
:1028300095549330E0F08336A1F18337C1F18335AD
:1028400009F063C02801F2E04F0E511CF801C0806E
:10285000D180692D70E036FC02C06FEF7FEFC601BA
:102860000E947A154C01689437F882010AC00C5F07
:102870001F4FFFE3F98388248394912C6501E8942A
:1028800037F833FE2DC0522C8114910471F5552078
:1028900009F468CFB70180E290E00E9490155A9445
:1028A000F6CFF801808189830E5F1F4FE4CF2801A6
:1028B000F2E04F0E511CF801C080D180692D70E00C
:1028C00036FC02C06FEF7FEFC6010E9485154C01F8
:1028D0008201D5CFB70180E290E00E9490152A9442
:1028E0002814190409F0B0F7CECFF60137FC859112
:1028F00037FE81916F01B70190E00E949015511051
:102900005A94F1E08F1A9108BFCF843619F08936B6
:1029100009F077C0F80137FE6BC060817181828158
:1029200093810C5F1F4FF32DFF763F2E97FF09C059
:1029300090958095709561957F4F8F4F9F4F6894CC
:1029400037F82AE030E0A5010E94C015C82ECA1849
:102950008C2C432C36FE0CC0E89440F8C91440F48B
:1029600034FE05C032FC03C0F32DFE7E4F2E892CB1
:1029700044FE95C0FE01EC0DF11D8081803309F00D
:1029800087C0242D297E422E842D8870582E43FC2A
:1029900095C040FE8FC09C2C821418F42C0C922CF5
:1029A000981844FE91C0B70180E390E00E94901512
:1029B00042FE09C088E790E041FE02C088E590E051
:1029C000B7010E949015C91408F48AC0CA94D12C8A
:1029D0009FEFC91AD90ACA0CDB1CF60182916F015C
:1029E000B70190E00E949015AC14BD04B1F74FCF31
:1029F00060817181072E000C880B990B0E5F1F4FB1
:102A000092CFD32CE894D4F82AE030E0853739F11E
:102A1000232D297FD22E8F3601F148F48835A9F075
:102A2000F701868197812B96E2E10C943A16803764
:102A300049F08837A9F7D4FE02C06894D2F820E1A3
:102A400030E00DC06894D4F8F6CF34FE03C0822F76
:102A50008660D82E20E132E002C028E030E0F801A4
:102A6000D7FE0FC060817181828193810C5F1F4FFF
:102A7000A5010E94C015C82ECA183D2CE89437F84D
:102A800067CF6081718190E080E00E5F1F4FF0CFD3
:102A900042FC02C0839478CF8394839475CF842DB5
:102AA000867809F471CFF6CFB70180E290E00E94FA
:102AB000901583948214C0F3512C73CF522C581864
:102AC000821408F46ECFF8CF842D867809F47BCF7A
:102AD0008BE241FE80E247FC8DE2B70190E071CFCE
:102AE000B70180E390E00E9490159A946CCF8FEF2D
:102AF0009FEF99CFFC010590615070400110D8F70D
:102B0000809590958E0F9F1F0895FC016150704035
:102B100001900110D8F7809590958E0F9F1F089512
:102B20000F931F93CF93DF93182F092FEB018B8106
:102B300081FD09C01FEF0FEF812F902FDF91CF9103
:102B40001F910F91089582FF14C02E813F818C81C7
:102B50009D81281739073CF4E881F981CF0101965E
:102B60009983888310838E819F8101969F838E83B2
:102B7000E3CFE885F985812F0995892BA1F3DACF79
:102B8000FA01AA27283051F1203181F1E8946F939E
:102B90006E7F6E5F7F4F8F4F9F4FAF4FB1E03ED044
:102BA000B4E03CD0670F781F891F9A1FA11D680FE2
:102BB000791F8A1F911DA11D6A0F711D811D911D15
:102BC000A11D20D009F468943F912AE0269F11248A
:102BD0003019305D3193DEF6CF010895462F4770EE
:102BE000405D4193B3E00FD0C9F7F6CF462F4F7049
:102BF000405D4A3318F0495D31FD4052419302D0A7
:102C0000A9F7EACFB4E0A69597958795779567954C
:102C1000BA95C9F700976105710508959B01AC014C
:102C20000A2E06945795479537952795BA95C9F773
:102C3000620F731F841F951FA01D08952F923F924E
:102C40004F925F926F927F928F929F92AF92BF92BC
:102C5000CF92DF92EF92FF920F931F93CF93DF9368
:102C6000CDB7DEB7CA1BDB0B0FB6F894DEBF0FBEC5
:102C7000CDBF09942A88398848885F846E847D8412
:102C80008C849B84AA84B984C884DF80EE80FD8014
:102C90000C811B81AA81B981CE0FD11D0FB6F8948A
:102CA000DEBF0FBECDBFED0108955058BB27AA2748
:102CB0000E946D160C9412180E94041838F00E949D
:102CC0000B1820F039F49F3F19F426F40C94F117F7
:102CD0000EF4E095E7FB0C94EB17E92F0E94231804
:102CE00058F3BA17620773078407950720F079F441
:102CF000A6F50C9445180EF4E0950B2EBA2FA02DD6
:102D00000B01B90190010C01CA01A0011124FF2798
:102D1000591B99F0593F50F4503E68F11A16F04093
:102D2000A22F232F342F4427585FF3CF4695379592
:102D30002795A795F0405395C9F77EF41F16BA0B57
:102D4000620B730B840BBAF09150A1F0FF0FBB1F05
:102D5000661F771F881FC2F70EC0BA0F621F731F4E
:102D6000841F48F4879577956795B795F7959E3FAB
:102D700008F0B0CF9395880F08F09927EE0F97953C
:102D8000879508950E94D6160C9412180E940B186D
:102D900058F00E94041840F029F45F3F29F00C9489
:102DA000EB1751110C9446180C94F1170E9423183C
:102DB00068F39923B1F3552391F3951B550BBB276A
:102DC000AA2762177307840738F09F5F5F4F220FAF
:102DD000331F441FAA1FA9F335D00E2E3AF0E0E8A6
:102DE00032D091505040E695001CCAF72BD0FE2FF0
:102DF00029D0660F771F881FBB1F26173707480784
:102E0000AB07B0E809F0BB0B802DBF01FF2793583B
:102E10005F4F3AF09E3F510578F00C94EB170C94FD
:102E200046185F3FE4F3983ED4F38695779567950F
:102E3000B795F7959F5FC9F7880F911D9695879570
:102E400097F90895E1E0660F771F881FBB1F62178F
:102E500073078407BA0720F0621B730B840BBA0B4D
:102E6000EE1F88F7E09508950E943B176894B11112
:102E70000C94461808950E942B1888F09F5798F0DC
:102E8000B92F9927B751B0F0E1F0660F771F881F6F
:102E9000991F1AF0BA95C9F714C0B13091F00E9489
:102EA0004518B1E008950C944518672F782F8827AE
:102EB000B85F39F0B93FCCF3869577956795B395B0
:102EC000D9F73EF490958095709561957F4F8F4F1F
:102ED0009F4F089597FB16F40E94F4170C94AE17B9
:102EE000E89409C097FB3EF49095809570956195A4
:102EF0007F4F8F4F9F4F9923A9F0F92F96E9BB275A
:102F00009395F695879577956795B795F111F8CFD5
:102F1000FAF4BB0F11F460FF1BC06F5F7F4F8F4F40
:102F20009F4F16C0882311F096E911C0772321F036
:102F30009EE8872F762F05C0662371F096E8862FCE
:102F400070E060E02AF09A95660F771F881FDAF725
:102F5000880F9695879597F90895E894F92F96EB41
:102F6000FF2381F0121613061406440B9395F69571
:102F700087957795679557954040FF23B9F71BC014
:102F800099270895882351F49850D2F7872B762FEC
:102F9000652F542F432F322F20E0B1F31216130662
:102FA0001406440B88233AF09A95440F551F661F68
:102FB000771F881FCAF755234AF4440F551F11F491
:102FC00060FF04C06F5F7F4F8F4F9F4F880F9695B4
:102FD000879597F9089597F99F6780E870E060E01A
:102FE00008959FEF80EC0895909580957095609579
:102FF00050954095309521953F4F4F4F5F4F6F4F04
:103000007F4F8F4F9F4F089500240A94161617067E
:1030100018060906089500240A94121613061406C9
:1030200005060895092E0394000C11F4882352F02C
:10303000BB0F40F4BF2B11F460FF04C06F5F7F4FE4
:103040008F4F9F4F089557FD9058440F551F59F0CB
:103050005F3F71F04795880F97FB991F61F09F3F85
:1030600079F087950895121613061406551FF2CFAE
:103070004695F1DF08C0161617061806991FF1CFFE
:1030800086957105610508940895E894BB27662725
:103090007727CB0197F908950E945F180C941218B6
:1030A0000E94041838F00E940B1820F0952311F0AC
:1030B0000C94EB170C94F11711240C9446180E94F1
:1030C000231870F3959FC1F3950F50E0551F629F31
:1030D000F001729FBB27F00DB11D639FAA27F00D71
:1030E000B11DAA1F649F6627B00DA11D661F829F98
:1030F0002227B00DA11D621F739FB00DA11D621F7D
:10310000839FA00D611D221F749F3327A00D611D99
:10311000231F849F600D211D822F762F6A2F11247B
:103120009F5750409AF0F1F088234AF0EE0FFF1FAE
:10313000BB1F661F771F881F91505040A9F79E3F05
:10314000510580F00C94EB170C9446185F3FE4F3A4
:10315000983ED4F3869577956795B795F795E7955B
:103160009F5FC1F7FE2B880F911D9695879597F964
:103170000895DB018F939F930E94FF18BF91AF9139
:10318000A29F800D911DA39F900DB29F900D1124C1
:10319000089597FB072E16F4009407D077FD09D009
:1031A0000E945E1A07FC05D03EF4909581959F4FD2
:1031B0000895709561957F4F0895A1E21A2EAA1B7C
:1031C000BB1BFD010DC0AA1FBB1FEE1FFF1FA217D7
:1031D000B307E407F50720F0A21BB30BE40BF50BD4
:1031E000661F771F881F991F1A9469F7609570955D
:1031F000809590959B01AC01BD01CF0108950E947F
:10320000781AA59F900DB49F900DA49F800D911DDD
:1032100011240895B7FF0C94FF180E94FF18821B19
:10322000930B0895DF93CF931F930F939A9DF02DE7
:10323000219FF00D8B9DF00D8A9DE02DF10D039FD8
:10324000F00D029FE00DF11D4E9DE00DF11D5E9D04
:10325000F00D4F9DF00D7F936F93BF92AF925F93F0
:103260004F93D5010E94781A8B01AC01D7010E94BF
:10327000781AEB01E80FF91FD6010E9461192F910E
:103280003F91D6010E94781AC60FD71FE81FF91F79
:10329000AF91BF910E9461192F913F910E94781ABE
:1032A000C60FD71FE81FF91FD6010E94781AE60F34
:1032B000F71F9801BE01CF010F911F91CF91DF91B0
:1032C00008950E94781A460F571FC81FD91F08F487
:1032D00031960895689401C0E894F92FF12B12F00B
:1032E0000C949E19A0E0B0E0E8E7F9E10C942416F4
:1032F000092E059422F40E94FA19112392F4F0E8A1
:103300000F26FFEFE094F09400951095B094C094D0
:10331000D094A194BF0ACF0ADF0AEF0AFF0A0F0B6D
:103320001F0B0E94A91907FC0E94FA19CDB7DEB73E
:10333000ECE00C944016689401C0E8948F929F9240
:10334000CF93DF930E94A919DF91CF919F908F9027
:10335000089588249924F401E401B0E49F93AA27F6
:103360009A158B049C04ED05FE05CF05D007A10737
:1033700098F4AD2FDC2FCF2FFE2FE92D982C892E1E
:10338000982F872F762F652F542F432F322F2227E8
:10339000B85031F7BF9127C01B2EBF91BB27220F1A
:1033A000331F441F551F661F771F881F991F881CD6
:1033B000991CEE1FFF1FCC1FDD1FAA1FBB1F8A1405
:1033C0009B04EC05FD05CE05DF05A007B10748F01D
:1033D0008A189B08EC09FD09CE09DF09A00BB10B87
:1033E00021601A94E1F62EF49401AF01BE01CD01E3
:1033F000000C089560957095809590953095409556
:10340000509521953F4F4F4F5F4F6F4F7F4F8F4FDD
:103410009F4F0895002E083090F0982F872F762F19
:10342000652F542F432F322F22270850F4CF220F1D
:10343000331F441F551F661F771F881F991F0A954A
:10344000B2F7002D089597FD1094002E083098F0E3
:103450000850232F342F452F562F672F782F892F71
:10346000912DF4CF159497958795779567955795F6
:103470004795379527950A95AAF71124002D0895A9
:103480002A0D3B1D4C1D5D1D6E1D7F1D801F911F54
:1034900008952A193B094C095D096E097F09800BC3
:1034A000910B08950024A7FD00942A1730054005CC
:1034B000500560057005800590050895AA1BBB1B8B
:1034C00051E107C0AA1FBB1FA617B70710F0A61B24
:1034D000B70B881F991F5A95A9F780959095BC0145
:1034E000CD010895EE0FFF1F0590F491E02D099492
:1034F000A29FB001B39FC001A39F700D811D112435
:10350000911DB29F700D811D1124911D08950F937F
:103510001F93CF93DF938230910510F482E090E007
:10352000E0917B03F0917C0330E020E0B0E0A0E08C
:10353000309799F42115310509F44AC0281B390B3D
:1035400024303105D8F58A819B816115710589F197
:10355000FB0193838283FE0111C04081518102816E
:10356000138148175907E0F04817590799F4109745
:1035700061F012960C93129713961C933296CF011A
:10358000DF91CF911F910F91089500937B031093CA
:103590007C03F4CF2115310551F04217530738F061
:1035A000A901DB019A01BD01DF01F801C1CFEF01E3
:1035B000F9CF90937C0380937B03CDCFFE01E20F84
:1035C000F31F819391932250310939832883D7CFF8
:1035D0002091790330917A03232B41F42091040147
:1035E0003091050130937A032093790320910201F1
:1035F000309103012115310541F42DB73EB74091BB
:10360000060150910701241B350BE0917903F091DD
:103610007A03E217F307A0F42E1B3F0B2817390794
:1036200078F0AC014E5F5F4F2417350748F04E0F1E
:103630005F1F50937A0340937903819391939FCFB7
:10364000F0E0E0E09CCFCF93DF930097E9F0FC013E
:10365000329713821282A0917B03B0917C03ED011B
:1036600030E020E01097A1F420813181820F931F78
:103670002091790330917A032817390709F061C046
:10368000F0937A03E0937903DF91CF910895EA01F3
:10369000CE17DF07E8F54A815B819E014115510590
:1036A000B1F7E901FB83EA8349915991C40FD51F12
:1036B000EC17FD0761F4808191810296840F951FBC
:1036C000E90199838883828193819B838A83F0E0D7
:1036D000E0E012968D919C9113970097B9F52D918A
:1036E0003C911197CD010296820F931F209179038F
:1036F00030917A032817390739F6309751F510922F
:103700007C0310927B03B0937A03A0937903BCCF20
:10371000D383C28340815181840F951FC817D90775
:1037200061F44E5F5F4F88819981480F591F518323
:1037300040838A819B81938382832115310509F01F
:10374000B0CFF0937C03E0937B039ECFFD01DC01BF
:10375000C0CF13821282D7CFFB01DC014150504011
:1037600048F001900D920020C9F701C01D92415010
:103770005040E0F70895AEE0B0E0E1ECFBE10C94DE
:103780002C160D891E8986E08C831A8309838FEF9E
:103790009FE79E838D83AE01475E5F4F6F89788D73
:1037A000CE0101960E94A0132F813885020F131FAE
:1037B000F80110822E96E4E00C94481610E0C1E760
:1037C000D0E004C0FE010E94721A2196C237D107D0
:1037D000C9F7F894FFCF010000007D0380000000CE
:1037E00000004101A100CE008E01FF00DD00F100CC
:1037F000000000007B044E04E30524044704340465
:10380000250400000000D70AA100E305EE02000035
:1038100000009002270BD5022B0BAD0B000000001F
:103820009002290BD5026F0BFC0B0D0A00424D5084
:10383000323830004D617920203920323032310069
:1038400031313A33363A3038004E6965207A6E614C
:103850006C657A696F6E6F20637A756A6E696B61E9
:103860002100446174613A00437A61733A0025642F
:103870002E2530327525634320200025752E2530F6
:08388000327568506120000060
:107E0000112484B714BE81FFF0D085E080938100F7
:107E100082E08093C00088E18093C10086E0809377
:107E2000C20080E18093C4008EE0C9D0259A86E02C
:107E300020E33CEF91E0309385002093840096BBD3
:107E4000B09BFECF1D9AA8958150A9F7CC24DD24C4
:107E500088248394B5E0AB2EA1E19A2EF3E0BF2EE7
:107E6000A2D0813461F49FD0082FAFD0023811F036
:107E7000013811F484E001C083E08DD089C08234E0
:107E800011F484E103C0853419F485E0A6D080C0E4
:107E9000853579F488D0E82EFF2485D0082F10E0AE
:107EA000102F00270E291F29000F111F8ED06801E7
:107EB0006FC0863521F484E090D080E0DECF843638
:107EC00009F040C070D06FD0082F6DD080E0C81688
:107ED00080E7D80618F4F601B7BEE895C0E0D1E017
:107EE00062D089930C17E1F7F0E0CF16F0E7DF06D8
:107EF00018F0F601B7BEE89568D007B600FCFDCFD4
:107F0000A601A0E0B1E02C9130E011968C91119780
:107F100090E0982F8827822B932B1296FA010C0160
:107F200087BEE89511244E5F5F4FF1E0A038BF0790
:107F300051F7F601A7BEE89507B600FCFDCF97BE46
:107F4000E89526C08437B1F42ED02DD0F82E2BD052
:107F50003CD0F601EF2C8F010F5F1F4F84911BD097
:107F6000EA94F801C1F70894C11CD11CFA94CF0C13
:107F7000D11C0EC0853739F428D08EE10CD085E9AC
:107F80000AD08FE07ACF813511F488E018D01DD067
:107F900080E101D065CF982F8091C00085FFFCCF94
:107FA0009093C60008958091C00087FFFCCF809118
:107FB000C00084FD01C0A8958091C6000895E0E648
:107FC000F0E098E1908380830895EDDF803219F02E
:107FD00088E0F5DFFFCF84E1DECF1F93182FE3DFCA
:107FE0001150E9F7F2DF1F91089580E0E8DFEE27F6
:047FF000FF270994CA
:027FFE00040479
:00000001FF
